{
  "contractName": "Test",
  "abi": [
    {
      "inputs": [
        {
          "internalType": "address",
          "name": "_verifier",
          "type": "address"
        }
      ],
      "stateMutability": "nonpayable",
      "type": "constructor"
    },
    {
      "anonymous": false,
      "inputs": [
        {
          "indexed": true,
          "internalType": "bytes",
          "name": "ipfsCidIndexed",
          "type": "bytes"
        }
      ],
      "name": "BobsCanNowSellKeys",
      "type": "event"
    },
    {
      "anonymous": false,
      "inputs": [
        {
          "indexed": false,
          "internalType": "bytes",
          "name": "ipfsCid",
          "type": "bytes"
        },
        {
          "indexed": false,
          "internalType": "string",
          "name": "fileType",
          "type": "string"
        },
        {
          "indexed": false,
          "internalType": "uint256",
          "name": "priceInEth",
          "type": "uint256"
        },
        {
          "indexed": false,
          "internalType": "uint256",
          "name": "royaltyPercentage",
          "type": "uint256"
        }
      ],
      "name": "ListingCreated",
      "type": "event"
    },
    {
      "anonymous": false,
      "inputs": [
        {
          "indexed": true,
          "internalType": "bytes",
          "name": "ipfsCidIndexed",
          "type": "bytes"
        },
        {
          "indexed": false,
          "internalType": "bytes",
          "name": "ipfsCid",
          "type": "bytes"
        },
        {
          "indexed": false,
          "internalType": "uint256[2]",
          "name": "bobDecryptingPubKey",
          "type": "uint256[2]"
        },
        {
          "indexed": false,
          "internalType": "address",
          "name": "bobEthAddress",
          "type": "address"
        },
        {
          "indexed": false,
          "internalType": "uint256",
          "name": "bobBidAmount",
          "type": "uint256"
        },
        {
          "indexed": false,
          "internalType": "bool",
          "name": "bobCanFillThisBid",
          "type": "bool"
        }
      ],
      "name": "PaymentReceived",
      "type": "event"
    },
    {
      "anonymous": false,
      "inputs": [
        {
          "indexed": false,
          "internalType": "string",
          "name": "fileType",
          "type": "string"
        },
        {
          "indexed": false,
          "internalType": "bytes",
          "name": "ipfsCid",
          "type": "bytes"
        },
        {
          "indexed": true,
          "internalType": "uint256",
          "name": "bobDecryptingPubKey",
          "type": "uint256"
        },
        {
          "indexed": false,
          "internalType": "uint256[4]",
          "name": "dKey",
          "type": "uint256[4]"
        }
      ],
      "name": "ReencryptedKeyProvided",
      "type": "event"
    },
    {
      "inputs": [
        {
          "internalType": "bytes",
          "name": "",
          "type": "bytes"
        }
      ],
      "name": "allListings",
      "outputs": [
        {
          "internalType": "string",
          "name": "fileType",
          "type": "string"
        },
        {
          "internalType": "uint256",
          "name": "howManyDKeysForSale",
          "type": "uint256"
        },
        {
          "internalType": "uint256",
          "name": "howManyDKeysSold",
          "type": "uint256"
        },
        {
          "internalType": "uint256",
          "name": "priceInEth",
          "type": "uint256"
        },
        {
          "internalType": "uint256",
          "name": "royaltyPercentage",
          "type": "uint256"
        },
        {
          "internalType": "uint256",
          "name": "poseidonHashedSecretKey",
          "type": "uint256"
        },
        {
          "internalType": "address payable",
          "name": "aliceEthAddress",
          "type": "address"
        },
        {
          "internalType": "bool",
          "name": "bobsCanSellTheirDkeys",
          "type": "bool"
        }
      ],
      "stateMutability": "view",
      "type": "function",
      "constant": true
    },
    {
      "inputs": [
        {
          "internalType": "bytes",
          "name": "",
          "type": "bytes"
        }
      ],
      "name": "existingListings",
      "outputs": [
        {
          "internalType": "bool",
          "name": "",
          "type": "bool"
        }
      ],
      "stateMutability": "view",
      "type": "function",
      "constant": true
    },
    {
      "inputs": [
        {
          "internalType": "string",
          "name": "_fileType",
          "type": "string"
        },
        {
          "internalType": "bytes",
          "name": "_ipfsCid",
          "type": "bytes"
        },
        {
          "internalType": "uint256",
          "name": "_howManyDKeysForSale",
          "type": "uint256"
        },
        {
          "internalType": "uint256",
          "name": "_priceInEth",
          "type": "uint256"
        },
        {
          "internalType": "uint256",
          "name": "_royaltyPercentage",
          "type": "uint256"
        },
        {
          "internalType": "uint256",
          "name": "_poseidonHashedSecretKey",
          "type": "uint256"
        }
      ],
      "name": "aliceCreatesListing",
      "outputs": [],
      "stateMutability": "nonpayable",
      "type": "function"
    },
    {
      "inputs": [
        {
          "internalType": "bytes",
          "name": "_ipfsCid",
          "type": "bytes"
        },
        {
          "internalType": "uint256[2]",
          "name": "_bobDecryptingPubKey",
          "type": "uint256[2]"
        }
      ],
      "name": "bobSendsPaymentToListing",
      "outputs": [],
      "stateMutability": "payable",
      "type": "function",
      "payable": true
    },
    {
      "inputs": [
        {
          "internalType": "bytes",
          "name": "_ipfsCid",
          "type": "bytes"
        },
        {
          "internalType": "uint256[2]",
          "name": "_pA",
          "type": "uint256[2]"
        },
        {
          "internalType": "uint256[2][2]",
          "name": "_pB",
          "type": "uint256[2][2]"
        },
        {
          "internalType": "uint256[2]",
          "name": "_pC",
          "type": "uint256[2]"
        },
        {
          "internalType": "uint256[7]",
          "name": "_pubSignals",
          "type": "uint256[7]"
        }
      ],
      "name": "aliceSendsDKey",
      "outputs": [],
      "stateMutability": "nonpayable",
      "type": "function"
    },
    {
      "inputs": [
        {
          "internalType": "bytes",
          "name": "_ipfsCid",
          "type": "bytes"
        },
        {
          "internalType": "uint256[2]",
          "name": "_pA",
          "type": "uint256[2]"
        },
        {
          "internalType": "uint256[2][2]",
          "name": "_pB",
          "type": "uint256[2][2]"
        },
        {
          "internalType": "uint256[2]",
          "name": "_pC",
          "type": "uint256[2]"
        },
        {
          "internalType": "uint256[7]",
          "name": "_pubSignals",
          "type": "uint256[7]"
        }
      ],
      "name": "bobSendsDKey",
      "outputs": [],
      "stateMutability": "nonpayable",
      "type": "function"
    }
  ],
  "bytecode": "0x60806040527379d78e89419839ff45eed419b41e5c6b04f839c0600160006101000a81548173ffffffffffffffffffffffffffffffffffffffff021916908373ffffffffffffffffffffffffffffffffffffffff16021790555034801561006557600080fd5b50604051612b35380380612b358339818101604052602081101561008857600080fd5b8101908080519060200190929190505050806000806101000a81548173ffffffffffffffffffffffffffffffffffffffff021916908373ffffffffffffffffffffffffffffffffffffffff16021790555050612a4c806100e96000396000f3fe6080604052600436106100555760003560e01c8063445b6eb11461005a5780634589a8bd146101385780636f5cce7d146102345780637d96ac1414610325578063aca37c74146104ac578063b952ecfe1461059d575b600080fd5b34801561006657600080fd5b506101206004803603602081101561007d57600080fd5b810190808035906020019064010000000081111561009a57600080fd5b8201836020820111156100ac57600080fd5b803590602001918460018302840111640100000000831117156100ce57600080fd5b91908080601f016020809104026020016040519081016040528093929190818152602001838380828437600081840152601f19601f820116905080830192505050505050509192919290505050610727565b60405180821515815260200191505060405180910390f35b6102326004803603606081101561014e57600080fd5b810190808035906020019064010000000081111561016b57600080fd5b82018360208201111561017d57600080fd5b8035906020019184600183028401116401000000008311171561019f57600080fd5b91908080601f016020809104026020016040519081016040528093929190818152602001838380828437600081840152601f19601f82011690508083019250505050505050919291929080604001906002806020026040519081016040528092919082600260200280828437600081840152601f19601f820116905080830192505050505050919291929050505061075d565b005b34801561024057600080fd5b50610323600480360361020081101561025857600080fd5b810190808035906020019064010000000081111561027557600080fd5b82018360208201111561028757600080fd5b803590602001918460018302840111640100000000831117156102a957600080fd5b91908080601f016020809104026020016040519081016040528093929190818152602001838380828437600081840152601f19601f8201169050808301925050505050505091929192908060400190919291929080608001909192919290806040019091929192908060e001909192919290505050610be7565b005b34801561033157600080fd5b506104aa600480360360c081101561034857600080fd5b810190808035906020019064010000000081111561036557600080fd5b82018360208201111561037757600080fd5b8035906020019184600183028401116401000000008311171561039957600080fd5b91908080601f016020809104026020016040519081016040528093929190818152602001838380828437600081840152601f19601f820116905080830192505050505050509192919290803590602001906401000000008111156103fc57600080fd5b82018360208201111561040e57600080fd5b8035906020019184600183028401116401000000008311171561043057600080fd5b91908080601f016020809104026020016040519081016040528093929190818152602001838380828437600081840152601f19601f820116905080830192505050505050509192919290803590602001909291908035906020019092919080359060200190929190803590602001909291905050506117ce565b005b3480156104b857600080fd5b5061059b60048036036102008110156104d057600080fd5b81019080803590602001906401000000008111156104ed57600080fd5b8201836020820111156104ff57600080fd5b8035906020019184600183028401116401000000008311171561052157600080fd5b91908080601f016020809104026020016040519081016040528093929190818152602001838380828437600081840152601f19601f8201169050808301925050505050505091929192908060400190919291929080608001909192919290806040019091929192908060e001909192919290505050611b55565b005b3480156105a957600080fd5b50610663600480360360208110156105c057600080fd5b81019080803590602001906401000000008111156105dd57600080fd5b8201836020820111156105ef57600080fd5b8035906020019184600183028401116401000000008311171561061157600080fd5b91908080601f016020809104026020016040519081016040528093929190818152602001838380828437600081840152601f19601f820116905080830192505050505050509192919290505050612711565b60405180806020018981526020018881526020018781526020018681526020018581526020018473ffffffffffffffffffffffffffffffffffffffff168152602001831515815260200182810382528a818151815260200191508051906020019080838360005b838110156106e55780820151818401526020810190506106ca565b50505050905090810190601f1680156107125780820380516001836020036101000a031916815260200191505b50995050505050505050505060405180910390f35b6003818051602081018201805184825260208301602085012081835280955050505050506000915054906101000a900460ff1681565b60006002836040518082805190602001908083835b602083106107955780518252602082019150602081019050602083039250610772565b6001836020036101000a0380198251168184511680821785525050505050509050019150509081526020016040518091039020905080600301543411610826576040517f08c379a00000000000000000000000000000000000000000000000000000000081526004018080602001828103825260278152602001806129906027913960400191505060405180910390fd5b600015156002846040518082805190602001908083835b60208310610860578051825260208201915060208101905060208303925061083d565b6001836020036101000a03801982511681845116808217855250505050505090500191505090815260200160405180910390206007016000846000600281106108a557fe5b6020020151815260200190815260200160002060009054906101000a900460ff161515146108d257600080fd5b60016002846040518082805190602001908083835b6020831061090a57805182526020820191506020810190506020830392506108e7565b6001836020036101000a038019825116818451168082178552505050505050905001915050908152602001604051809103902060070160008460006002811061094f57fe5b6020020151815260200190815260200160002060006101000a81548160ff021916908315150217905550826040518082805190602001908083835b602083106109ad578051825260208201915060208101905060208303925061098a565b6001836020036101000a03801982511681845116808217855250505050505090500191505060405180910390207ff29f4e30317537dabc3bfd27a876a2999cfaf893c62ac71012743f62cb2e1862848433346002896040518082805190602001908083835b60208310610a355780518252602082019150602081019050602083039250610a12565b6001836020036101000a0380198251168184511680821785525050505050509050019150509081526020016040518091039020600a0160009054906101000a900460ff16604051808060200186600260200280838360005b83811015610aa8578082015181840152602081019050610a8d565b505050509050018573ffffffffffffffffffffffffffffffffffffffff1681526020018481526020018315158152602001828103825287818151815260200191508051906020019080838360005b83811015610b11578082015181840152602081019050610af6565b50505050905090810190601f168015610b3e5780820380516001836020036101000a031916815260200191505b50965050505050505060405180910390a2346002846040518082805190602001908083835b60208310610b865780518252602082019150602081019050602083039250610b63565b6001836020036101000a0380198251168184511680821785525050505050509050019150509081526020016040518091039020600801600084600060028110610bcb57fe5b6020020151815260200190815260200160002081905550505050565b600015156002866040518082805190602001908083835b60208310610c215780518252602082019150602081019050602083039250610bfe565b6001836020036101000a0380198251168184511680821785525050505050509050019150509081526020016040518091039020600a0160009054906101000a900460ff16151514610c7157600080fd5b610c79612834565b81600560078110610c8657fe5b602002013581600060028110610c9857fe5b60200201818152505081600660078110610cae57fe5b602002013581600160028110610cc057fe5b602002018181525050610cd1612856565b82600060078110610cde57fe5b602002013581600060048110610cf057fe5b60200201818152505082600160078110610d0657fe5b602002013581600160048110610d1857fe5b60200201818152505082600260078110610d2e57fe5b602002013581600260048110610d4057fe5b60200201818152505082600360078110610d5657fe5b602002013581600360048110610d6857fe5b6020020181815250506002876040518082805190602001908083835b60208310610da75780518252602082019150602081019050602083039250610d84565b6001836020036101000a03801982511681845116808217855250505050505090500191505090815260200160405180910390206005015483600460078110610deb57fe5b602002013514610dfa57600080fd5b600115156002886040518082805190602001908083835b60208310610e345780518252602082019150602081019050602083039250610e11565b6001836020036101000a0380198251168184511680821785525050505050509050019150509081526020016040518091039020600701600084600060028110610e7957fe5b6020020151815260200190815260200160002060009054906101000a900460ff161515148015610f485750600015156002886040518082805190602001908083835b60208310610ede5780518252602082019150602081019050602083039250610ebb565b6001836020036101000a0380198251168184511680821785525050505050509050019150509081526020016040518091039020600901600084600060028110610f2357fe5b6020020151815260200190815260200160002060009054906101000a900460ff161515145b610f9d576040517f08c379a000000000000000000000000000000000000000000000000000000000815260040180806020018281038252603581526020018061295b6035913960400191505060405180910390fd5b60008060009054906101000a900473ffffffffffffffffffffffffffffffffffffffff1673ffffffffffffffffffffffffffffffffffffffff1663c894e757888888886040518563ffffffff1660e01b81526004018085600260200280828437600081840152601f19601f82011690508083019250505084600260400280828437600081840152601f19601f82011690508083019250505083600260200280828437600081840152601f19601f82011690508083019250505082600760200280828437600081840152601f19601f82011690508083019250505094505050505060206040518083038186803b15801561109557600080fd5b505afa1580156110a9573d6000803e3d6000fd5b505050506040513d60208110156110bf57600080fd5b8101908080519060200190929190505050905060011515811515146110e357600080fd5b826000600281106110f057fe5b60200201517f416759cf12337fa836c86bc7b3c35137a3412e0bd5f26467c6bf77582c5dbcea60028a6040518082805190602001908083835b6020831061114c5780518252602082019150602081019050602083039250611129565b6001836020036101000a03801982511681845116808217855250505050505090500191505090815260200160405180910390206000018a8560405180806020018060200184600460200280838360005b838110156111b757808201518184015260208101905061119c565b5050505090500183810383528681815460018160011615610100020316600290048152602001915080546001816001161561010002031660029004801561123f5780601f106112145761010080835404028352916020019161123f565b820191906000526020600020905b81548152906001019060200180831161122257829003601f168201915b5050838103825285818151815260200191508051906020019080838360005b8381101561127957808201518184015260208101905061125e565b50505050905090810190601f1680156112a65780820380516001836020036101000a031916815260200191505b509550505050505060405180910390a260006002896040518082805190602001908083835b602083106112ee57805182526020820191506020810190506020830392506112cb565b6001836020036101000a038019825116818451168082178552505050505050905001915050908152602001604051809103902060080160008560006002811061133357fe5b6020020151815260200190815260200160002054905060006064606383028161135857fe5b04905060006064600184028161136a57fe5b04905060028b6040518082805190602001908083835b602083106113a35780518252602082019150602081019050602083039250611380565b6001836020036101000a038019825116818451168082178552505050505050905001915050908152602001604051809103902060060160009054906101000a900473ffffffffffffffffffffffffffffffffffffffff1673ffffffffffffffffffffffffffffffffffffffff166108fc839081150290604051600060405180830381858888f1935050505015801561143f573d6000803e3d6000fd5b50600160009054906101000a900473ffffffffffffffffffffffffffffffffffffffff1673ffffffffffffffffffffffffffffffffffffffff166108fc829081150290604051600060405180830381858888f193505050501580156114a8573d6000803e3d6000fd5b50600160028c6040518082805190602001908083835b602083106114e157805182526020820191506020810190506020830392506114be565b6001836020036101000a038019825116818451168082178552505050505050905001915050908152602001604051809103902060090160008860006002811061152657fe5b6020020151815260200190815260200160002060006101000a81548160ff021916908315150217905550600160028c6040518082805190602001908083835b602083106115885780518252602082019150602081019050602083039250611565565b6001836020036101000a038019825116818451168082178552505050505050905001915050908152602001604051809103902060020160008282540192505081905550600060028c6040518082805190602001908083835b6020831061160357805182526020820191506020810190506020830392506115e0565b6001836020036101000a03801982511681845116808217855250505050505090500191505090815260200160405180910390206002015460028d6040518082805190602001908083835b60208310611670578051825260208201915060208101905060208303925061164d565b6001836020036101000a0380198251168184511680821785525050505050509050019150509081526020016040518091039020600101540314156117c157600160028c6040518082805190602001908083835b602083106116e657805182526020820191506020810190506020830392506116c3565b6001836020036101000a0380198251168184511680821785525050505050509050019150509081526020016040518091039020600a0160006101000a81548160ff0219169083151502179055508a6040518082805190602001908083835b602083106117675780518252602082019150602081019050602083039250611744565b6001836020036101000a03801982511681845116808217855250505050505090500191505060405180910390207f5e48b25cf56afcac7523d623542b822f6ec9559b749960fda2750c8ee83f8a0b60405160405180910390a25b5050505050505050505050565b600015156003866040518082805190602001908083835b6020831061180857805182526020820191506020810190506020830392506117e5565b6001836020036101000a038019825116818451168082178552505050505050905001915050908152602001604051809103902060009054906101000a900460ff1615151461185557600080fd5b6064821080156118655750600082115b6118ba576040517f08c379a00000000000000000000000000000000000000000000000000000000081526004018080602001828103825260398152602001806129b76039913960400191505060405180910390fd5b60006002866040518082805190602001908083835b602083106118f257805182526020820191506020810190506020830392506118cf565b6001836020036101000a038019825116818451168082178552505050505050905001915050908152602001604051809103902090508481600101819055506000816002018190555083816003018190555082816004018190555086816000019080519060200190611964929190612878565b50818160050181905550338160060160006101000a81548173ffffffffffffffffffffffffffffffffffffffff021916908373ffffffffffffffffffffffffffffffffffffffff16021790555060016003876040518082805190602001908083835b602083106119e957805182526020820191506020810190506020830392506119c6565b6001836020036101000a038019825116818451168082178552505050505050905001915050908152602001604051809103902060006101000a81548160ff0219169083151502179055507f01bcf949a1e418c6bfc215f9924ad9c955d4503762b7f85aafa6da549ab38d1986888686604051808060200180602001858152602001848152602001838103835287818151815260200191508051906020019080838360005b83811015611aa8578082015181840152602081019050611a8d565b50505050905090810190601f168015611ad55780820380516001836020036101000a031916815260200191505b50838103825286818151815260200191508051906020019080838360005b83811015611b0e578082015181840152602081019050611af3565b50505050905090810190601f168015611b3b5780820380516001836020036101000a031916815260200191505b50965050505050505060405180910390a150505050505050565b600115156002866040518082805190602001908083835b60208310611b8f5780518252602082019150602081019050602083039250611b6c565b6001836020036101000a0380198251168184511680821785525050505050509050019150509081526020016040518091039020600a0160009054906101000a900460ff16151514611c2b576040517f08c379a00000000000000000000000000000000000000000000000000000000081526004018080602001828103825260458152602001806129166045913960600191505060405180910390fd5b611c33612834565b81600560078110611c4057fe5b602002013581600060028110611c5257fe5b60200201818152505081600660078110611c6857fe5b602002013581600160028110611c7a57fe5b602002018181525050611c8b612856565b82600060078110611c9857fe5b602002013581600060048110611caa57fe5b60200201818152505082600160078110611cc057fe5b602002013581600160048110611cd257fe5b60200201818152505082600260078110611ce857fe5b602002013581600260048110611cfa57fe5b60200201818152505082600360078110611d1057fe5b602002013581600360048110611d2257fe5b6020020181815250506002876040518082805190602001908083835b60208310611d615780518252602082019150602081019050602083039250611d3e565b6001836020036101000a03801982511681845116808217855250505050505090500191505090815260200160405180910390206005015483600460078110611da557fe5b602002013514611e00576040517f08c379a00000000000000000000000000000000000000000000000000000000081526004018080602001828103825260278152602001806129f06027913960400191505060405180910390fd5b600115156002886040518082805190602001908083835b60208310611e3a5780518252602082019150602081019050602083039250611e17565b6001836020036101000a0380198251168184511680821785525050505050509050019150509081526020016040518091039020600701600084600060028110611e7f57fe5b6020020151815260200190815260200160002060009054906101000a900460ff161515148015611f4e5750600015156002886040518082805190602001908083835b60208310611ee45780518252602082019150602081019050602083039250611ec1565b6001836020036101000a0380198251168184511680821785525050505050509050019150509081526020016040518091039020600901600084600060028110611f2957fe5b6020020151815260200190815260200160002060009054906101000a900460ff161515145b611fa3576040517f08c379a000000000000000000000000000000000000000000000000000000000815260040180806020018281038252603581526020018061295b6035913960400191505060405180910390fd5b60008060009054906101000a900473ffffffffffffffffffffffffffffffffffffffff1673ffffffffffffffffffffffffffffffffffffffff1663c894e757888888886040518563ffffffff1660e01b81526004018085600260200280828437600081840152601f19601f82011690508083019250505084600260400280828437600081840152601f19601f82011690508083019250505083600260200280828437600081840152601f19601f82011690508083019250505082600760200280828437600081840152601f19601f82011690508083019250505094505050505060206040518083038186803b15801561209b57600080fd5b505afa1580156120af573d6000803e3d6000fd5b505050506040513d60208110156120c557600080fd5b810190808051906020019092919050505090506001151581151514612152576040517f08c379a000000000000000000000000000000000000000000000000000000000815260040180806020018281038252601f8152602001807f766572696669636174696f6e206f66207a6b2070726f6f66206661696c65640081525060200191505060405180910390fd5b8260006002811061215f57fe5b60200201517f416759cf12337fa836c86bc7b3c35137a3412e0bd5f26467c6bf77582c5dbcea60028a6040518082805190602001908083835b602083106121bb5780518252602082019150602081019050602083039250612198565b6001836020036101000a03801982511681845116808217855250505050505090500191505090815260200160405180910390206000018a8560405180806020018060200184600460200280838360005b8381101561222657808201518184015260208101905061220b565b505050509050018381038352868181546001816001161561010002031660029004815260200191508054600181600116156101000203166002900480156122ae5780601f10612283576101008083540402835291602001916122ae565b820191906000526020600020905b81548152906001019060200180831161229157829003601f168201915b5050838103825285818151815260200191508051906020019080838360005b838110156122e85780820151818401526020810190506122cd565b50505050905090810190601f1680156123155780820380516001836020036101000a031916815260200191505b509550505050505060405180910390a260006002896040518082805190602001908083835b6020831061235d578051825260208201915060208101905060208303925061233a565b6001836020036101000a03801982511681845116808217855250505050505090500191505090815260200160405180910390206008016000856000600281106123a257fe5b60200201518152602001908152602001600020549050600060028a6040518082805190602001908083835b602083106123f057805182526020820191506020810190506020830392506123cd565b6001836020036101000a0380198251168184511680821785525050505050509050019150509081526020016040518091039020600401549050600060648284028161243757fe5b049050600060648360630385028161244b57fe5b04905060006064858161245a57fe5b04905060028d6040518082805190602001908083835b602083106124935780518252602082019150602081019050602083039250612470565b6001836020036101000a038019825116818451168082178552505050505050905001915050908152602001604051809103902060060160009054906101000a900473ffffffffffffffffffffffffffffffffffffffff1673ffffffffffffffffffffffffffffffffffffffff166108fc849081150290604051600060405180830381858888f1935050505015801561252f573d6000803e3d6000fd5b503373ffffffffffffffffffffffffffffffffffffffff166108fc839081150290604051600060405180830381858888f19350505050158015612576573d6000803e3d6000fd5b50600160009054906101000a900473ffffffffffffffffffffffffffffffffffffffff1673ffffffffffffffffffffffffffffffffffffffff166108fc829081150290604051600060405180830381858888f193505050501580156125df573d6000803e3d6000fd5b50600160028e6040518082805190602001908083835b6020831061261857805182526020820191506020810190506020830392506125f5565b6001836020036101000a038019825116818451168082178552505050505050905001915050908152602001604051809103902060090160008a60006002811061265d57fe5b6020020151815260200190815260200160002060006101000a81548160ff021916908315150217905550600160028e6040518082805190602001908083835b602083106126bf578051825260208201915060208101905060208303925061269c565b6001836020036101000a03801982511681845116808217855250505050505090500191505090815260200160405180910390206002016000828254019250508190555050505050505050505050505050565b600281805160208101820180518482526020830160208501208183528095505050505050600091509050806000018054600181600116156101000203166002900480601f0160208091040260200160405190810160405280929190818152602001828054600181600116156101000203166002900480156127d35780601f106127a8576101008083540402835291602001916127d3565b820191906000526020600020905b8154815290600101906020018083116127b657829003601f168201915b5050505050908060010154908060020154908060030154908060040154908060050154908060060160009054906101000a900473ffffffffffffffffffffffffffffffffffffffff169080600a0160009054906101000a900460ff16905088565b6040518060400160405280600290602082028036833780820191505090505090565b6040518060800160405280600490602082028036833780820191505090505090565b828054600181600116156101000203166002900490600052602060002090601f016020900481019282601f106128b957805160ff19168380011785556128e7565b828001600101855582156128e7579182015b828111156128e65782518255916020019190600101906128cb565b5b5090506128f491906128f8565b5090565b5b808211156129115760008160009055506001016128f9565b509056fe616c69636520686173206e6f742079657420736f6c64207468652072657127642023206f6620646b65797320696e206f7264657220666f7220626f627320746f2073656c6c7468697320626f6220686173206e6f7420706169642c206f722077617320616c72656164792070726f7669646564206120646b657962696473206d757374206265203e20616c69636527732073706563696669656420616d6f756e74726f79616c747920616d6f756e74206d7573742062652067726561746572207468616e20302520616e64206c657373207468616e2031303025706f736569646f6e2068617368206f6620746865206b657920646f6573206e6f74206d61746368a2646970667358221220936276cf3a19587e194ce91de432558286696c2482f72a8856c82412a6a0610e64736f6c63430007000033",
  "immutableReferences": {},
  "source": "// SPDX-License-Identifier: AGPL-3.0-or-later\n\npragma solidity >=0.7.0 <0.8.20;\n\ninterface IVerifier {\n  function verifyProof(\n    uint256[2] memory _pA,\n    uint256[2][2] memory _pB,\n    uint256[2] memory _pC,\n    uint256[7] memory _pubSignals\n  ) external view returns (bool);\n}\n\ncontract Test {\n\n    IVerifier zkVerifier;\n\n    constructor(address _verifier) {\n        zkVerifier = IVerifier(_verifier);\n    }\n\n    address payable owner = payable(0x79d78e89419839Ff45EED419B41E5c6b04F839c0); // just a ganache address\n\n    event ListingCreated(bytes ipfsCid, string fileType, uint priceInEth, uint royaltyPercentage);\n    event PaymentReceived(bytes indexed ipfsCidIndexed, bytes ipfsCid, uint[2] bobDecryptingPubKey, address bobEthAddress, uint bobBidAmount, bool bobCanFillThisBid);\n    event ReencryptedKeyProvided(string fileType, bytes ipfsCid, uint indexed bobDecryptingPubKey, uint[4] dKey);\n    event BobsCanNowSellKeys(bytes indexed ipfsCidIndexed);\n\n    mapping (bytes => Listing) public allListings;\n    mapping (bytes => bool) public existingListings;\n\n    struct Listing {\n        string fileType;\n        uint howManyDKeysForSale;\n        uint howManyDKeysSold;\n        uint priceInEth; \n        uint royaltyPercentage; // should be uint8\n        uint poseidonHashedSecretKey; \n        address payable aliceEthAddress;\n        mapping (uint => bool) bobsThatHavePaid; // using x-value of bob's decrypting public key only (can't map a uint[2]) -- this should(?) be secure... other option is concatenate, then do the mapping....\n        mapping (uint => uint) bobsByBidAmounts;\n        mapping (uint => bool) bobsThatHaveBeenProvidedDKeys;\n        bool bobsCanSellTheirDkeys;\n    } \n    \n    function aliceCreatesListing(string memory _fileType, bytes memory _ipfsCid, uint _howManyDKeysForSale, uint _priceInEth, uint _royaltyPercentage, uint _poseidonHashedSecretKey) public {\n        require(existingListings[_ipfsCid] == false); \n        require(_royaltyPercentage < 100 && _royaltyPercentage > 0, \"royalty amount must be greater than 0% and less than 100%\");\n        Listing storage newListing = allListings[_ipfsCid];\n        newListing.howManyDKeysForSale = _howManyDKeysForSale;\n        newListing.howManyDKeysSold = 0;\n        newListing.priceInEth = _priceInEth;\n        newListing.royaltyPercentage = _royaltyPercentage;\n        newListing.fileType = _fileType;\n        newListing.poseidonHashedSecretKey = _poseidonHashedSecretKey;\n        newListing.aliceEthAddress = payable(msg.sender);\n        existingListings[_ipfsCid] = true;\n        emit ListingCreated(_ipfsCid, _fileType, _priceInEth, _royaltyPercentage);\n    }\n\n    function bobSendsPaymentToListing(bytes memory _ipfsCid, uint[2] memory _bobDecryptingPubKey) public payable {\n        Listing storage thisListing = allListings[_ipfsCid];\n        require (msg.value > thisListing.priceInEth, \"bids must be > alice's specified amount\");\n        require(allListings[_ipfsCid].bobsThatHavePaid[_bobDecryptingPubKey[0]] == false);\n        allListings[_ipfsCid].bobsThatHavePaid[_bobDecryptingPubKey[0]] = true;\n        emit PaymentReceived(_ipfsCid, _ipfsCid, _bobDecryptingPubKey, msg.sender, msg.value, allListings[_ipfsCid].bobsCanSellTheirDkeys);\n        allListings[_ipfsCid].bobsByBidAmounts[_bobDecryptingPubKey[0]] = msg.value;\n    }\n    \n    function aliceSendsDKey(bytes memory _ipfsCid, uint[2] calldata _pA, uint[2][2] calldata _pB, uint[2] calldata _pC, uint[7] calldata _pubSignals) public {\n        // limits alice to only selling as many dkeys as she originally specified in the Listing\n        require(allListings[_ipfsCid].bobsCanSellTheirDkeys == false);\n\n        // save bob's address + dkey to variables (possible that dKey doesn't need to be temporarily saved to memory...)\n        uint[2] memory bobDecryptingPubKey;\n        bobDecryptingPubKey[0] = _pubSignals[5];\n        bobDecryptingPubKey[1] = _pubSignals[6];\n        \n        uint[4] memory dKey;\n        dKey[0] = _pubSignals[0];\n        dKey[1] = _pubSignals[1];\n        dKey[2] = _pubSignals[2];\n        dKey[3] = _pubSignals[3];\n\n        // require poseidon hashed secret key in _pubSignals matches the Listing\n        require(_pubSignals[4] == allListings[_ipfsCid].poseidonHashedSecretKey);\n        \n        // ensure that this bob has not yet been provided a dkey ...... can this be exploited by alice creating a proof for bob's valid x value (_pubSignals[5]) but using a made up y value? (i dont think so -- should only be one valid y coord for a given x coord, and the proof circuit has a check that the point is on curve)\n        require(allListings[_ipfsCid].bobsThatHavePaid[bobDecryptingPubKey[0]] == true && allListings[_ipfsCid].bobsThatHaveBeenProvidedDKeys[bobDecryptingPubKey[0]] == false, \"this bob has not paid, or was already provided a dkey\");\n\n        // verify proof\n        bool result = zkVerifier.verifyProof(_pA, _pB, _pC, _pubSignals);\n        require(result == true);\n\n        // emit event so that Bob can listen for when the dkey is posted on-chain\n        emit ReencryptedKeyProvided(allListings[_ipfsCid].fileType, _ipfsCid, bobDecryptingPubKey[0], dKey);\n        \n        // send 99% of bob's bid amount to alice, and send remainder to \"owner\" contract. is there going to be a small error (+/- some wei) in what the transfer amounts should be as a result of the division?\n        uint256 bidAmount = allListings[_ipfsCid].bobsByBidAmounts[bobDecryptingPubKey[0]];\n        uint256 aliceTransferAmount = bidAmount * 99 / 100;\n        uint256 ownerTransferAmount = bidAmount * 1 / 100;\n        allListings[_ipfsCid].aliceEthAddress.transfer(aliceTransferAmount); \n        owner.transfer(ownerTransferAmount);\n\n        // show that this bob has been provided a dkey (to prevent alice sending the same dkey repeatedly to drain the smart contract & also show that this bob owns a dkey)\n        allListings[_ipfsCid].bobsThatHaveBeenProvidedDKeys[bobDecryptingPubKey[0]] = true;\n\n        // increment how many keys sold by 1\n        allListings[_ipfsCid].howManyDKeysSold += 1;\n\n        // check to see if enough dkeys have been sold by alice that bobs can now sell dkeys, and update bool accordingly. also firing an event for bob's front end to know that he is now able to sell his dkey.\n        if (allListings[_ipfsCid].howManyDKeysForSale - allListings[_ipfsCid].howManyDKeysSold == 0) {\n            allListings[_ipfsCid].bobsCanSellTheirDkeys = true;\n            emit BobsCanNowSellKeys(_ipfsCid);\n        }\n    }\n    \n    // whole lotta \"bob\" getting thrown around here... this is 1 bob responding with a dkey to another bob's bid... may be worth introducing the charlie character...?\n    function bobSendsDKey(bytes memory _ipfsCid, uint[2] calldata _pA, uint[2][2] calldata _pB, uint[2] calldata _pC, uint[7] calldata _pubSignals) public {\n        require(allListings[_ipfsCid].bobsCanSellTheirDkeys == true, \"alice has not yet sold the req'd # of dkeys in order for bobs to sell\");\n\n        uint[2] memory bobDecryptingPubKey;\n        bobDecryptingPubKey[0] = _pubSignals[5];\n        bobDecryptingPubKey[1] = _pubSignals[6];\n        \n        uint[4] memory dKey;\n        dKey[0] = _pubSignals[0];\n        dKey[1] = _pubSignals[1];\n        dKey[2] = _pubSignals[2];\n        dKey[3] = _pubSignals[3];\n\n        require(_pubSignals[4] == allListings[_ipfsCid].poseidonHashedSecretKey, \"poseidon hash of the key does not match\");\n        \n        require(allListings[_ipfsCid].bobsThatHavePaid[bobDecryptingPubKey[0]] == true && allListings[_ipfsCid].bobsThatHaveBeenProvidedDKeys[bobDecryptingPubKey[0]] == false, \"this bob has not paid, or was already provided a dkey\");\n\n        bool result = zkVerifier.verifyProof(_pA, _pB, _pC, _pubSignals);\n        require(result == true, \"verification of zk proof failed\");\n\n        emit ReencryptedKeyProvided(allListings[_ipfsCid].fileType, _ipfsCid, bobDecryptingPubKey[0], dKey);\n        \n        uint256 bidAmount = allListings[_ipfsCid].bobsByBidAmounts[bobDecryptingPubKey[0]];\n        uint256 royaltyAmount = allListings[_ipfsCid].royaltyPercentage;\n        uint256 aliceTransferAmount = bidAmount * royaltyAmount / 100;\n        uint256 bobTransferAmount = bidAmount * (99 - royaltyAmount) / 100;\n        uint256 ownerTransferAmount = bidAmount / 100;\n        \n        allListings[_ipfsCid].aliceEthAddress.transfer(aliceTransferAmount); \n        payable(msg.sender).transfer(bobTransferAmount); \n        owner.transfer(ownerTransferAmount);\n\n        allListings[_ipfsCid].bobsThatHaveBeenProvidedDKeys[bobDecryptingPubKey[0]] = true;\n\n        // not needed, but leaving this cuz how many times a key changes hands could still be interesting... maybe for a \"listing leaderboard\"?\n        allListings[_ipfsCid].howManyDKeysSold += 1;\n    }\n\n    // TODO: a function to return bob's funds after so many blocks (in the event that alice doesn't respond to payment w a key)\n    //  how best to track which bobs paid what amount? add mapping (uint => uint) howMuchEachBobHasPaid to the listing?\n    //  how is the gas paid for? should be alice that pays for the txn to return bob's funds\n\n    // TODO: create \"DKEY\" ERC20 token. \"owner\" contract should distribute the accumulated fees to token holders.\n\n    // TODO: a bidding mechanism -- allow bob to bid against other bobs when buying from alice, allow charlie to bid against other charlies when buying from bob, etc\n    //  smart contract logic is implemented above, still need:\n    //      - alice's & bob's frontends listening for PaymentReceived events, and responding w dkeys to the highest bids first\n    //      - create a subgraph for frontends to listen to for event data\n\n}",
  "sourcePath": "/Users/basilviolin/dkey-js/test1-dev/contracts/Test.sol",
  "compiler": {
    "name": "solc",
    "version": "0.7.0+commit.9e61f92b.Emscripten.clang"
  },
  "schemaVersion": "3.4.11",
  "updatedAt": "2024-01-14T21:31:20.558Z",
  "networkType": "ethereum",
  "devdoc": {
    "kind": "dev",
    "methods": {},
    "version": 1
  },
  "userdoc": {
    "kind": "user",
    "methods": {},
    "version": 1
  }
}